{
  "_format": "hh-sol-artifact-1",
  "contractName": "Attendance",
  "sourceName": "contracts/Attendance.sol",
  "abi": [
    {
      "anonymous": false,
      "inputs": [
        {
          "indexed": false,
          "internalType": "uint256",
          "name": "index",
          "type": "uint256"
        },
        {
          "indexed": false,
          "internalType": "bool",
          "name": "present",
          "type": "bool"
        }
      ],
      "name": "AttendanceUpdated",
      "type": "event"
    },
    {
      "anonymous": false,
      "inputs": [
        {
          "indexed": false,
          "internalType": "string",
          "name": "name",
          "type": "string"
        },
        {
          "indexed": false,
          "internalType": "uint256",
          "name": "age",
          "type": "uint256"
        }
      ],
      "name": "StudentAdded",
      "type": "event"
    },
    {
      "inputs": [
        {
          "internalType": "string",
          "name": "_name",
          "type": "string"
        },
        {
          "internalType": "uint256",
          "name": "_age",
          "type": "uint256"
        }
      ],
      "name": "addStudent",
      "outputs": [],
      "stateMutability": "nonpayable",
      "type": "function"
    },
    {
      "inputs": [
        {
          "internalType": "uint256",
          "name": "",
          "type": "uint256"
        }
      ],
      "name": "allStudent",
      "outputs": [
        {
          "internalType": "string",
          "name": "name",
          "type": "string"
        },
        {
          "internalType": "uint256",
          "name": "age",
          "type": "uint256"
        },
        {
          "internalType": "bool",
          "name": "present",
          "type": "bool"
        }
      ],
      "stateMutability": "view",
      "type": "function"
    },
    {
      "inputs": [
        {
          "internalType": "uint256",
          "name": "_index",
          "type": "uint256"
        },
        {
          "internalType": "bool",
          "name": "_present",
          "type": "bool"
        }
      ],
      "name": "updateAttendance",
      "outputs": [],
      "stateMutability": "nonpayable",
      "type": "function"
    }
  ],
  "bytecode": "0x6080604052348015600f57600080fd5b50610a7c8061001f6000396000f3fe608060405234801561001057600080fd5b50600436106100415760003560e01c80630e5eeef714610046578063b3c5df5814610062578063d6f4d53a14610094575b600080fd5b610060600480360381019061005b9190610498565b6100b0565b005b61007c600480360381019061007791906104f4565b610178565b60405161008b939291906105ca565b60405180910390f35b6100ae60048036038101906100a99190610634565b610247565b005b60006040518060600160405280848152602001838152602001600015158152509080600181540180825580915050600190039060005260206000209060030201600090919091909150600082015181600001908161010e9190610880565b506020820151816001015560408201518160020160006101000a81548160ff02191690831515021790555050507f61cbfeb3e2fc793ef2e1793a66f9197e4991c82480733630d27c152d9de55d29828260405161016c929190610952565b60405180910390a15050565b6000818154811061018857600080fd5b90600052602060002090600302016000915090508060000180546101ab906106a3565b80601f01602080910402602001604051908101604052809291908181526020018280546101d7906106a3565b80156102245780601f106101f957610100808354040283529160200191610224565b820191906000526020600020905b81548152906001019060200180831161020757829003601f168201915b5050505050908060010154908060020160009054906101000a900460ff16905083565b600080549050821061028e576040517f08c379a0000000000000000000000000000000000000000000000000000000008152600401610285906109ce565b60405180910390fd5b80600083815481106102a3576102a26109ee565b5b906000526020600020906003020160020160006101000a81548160ff0219169083151502179055507fb24c5a7d71fb23dd51bc8d1fcbf951fa449ec941f1775a487bc9139bd573099d82826040516102fc929190610a1d565b60405180910390a15050565b6000604051905090565b600080fd5b600080fd5b600080fd5b600080fd5b6000601f19601f8301169050919050565b7f4e487b7100000000000000000000000000000000000000000000000000000000600052604160045260246000fd5b61036f82610326565b810181811067ffffffffffffffff8211171561038e5761038d610337565b5b80604052505050565b60006103a1610308565b90506103ad8282610366565b919050565b600067ffffffffffffffff8211156103cd576103cc610337565b5b6103d682610326565b9050602081019050919050565b82818337600083830152505050565b6000610405610400846103b2565b610397565b90508281526020810184848401111561042157610420610321565b5b61042c8482856103e3565b509392505050565b600082601f8301126104495761044861031c565b5b81356104598482602086016103f2565b91505092915050565b6000819050919050565b61047581610462565b811461048057600080fd5b50565b6000813590506104928161046c565b92915050565b600080604083850312156104af576104ae610312565b5b600083013567ffffffffffffffff8111156104cd576104cc610317565b5b6104d985828601610434565b92505060206104ea85828601610483565b9150509250929050565b60006020828403121561050a57610509610312565b5b600061051884828501610483565b91505092915050565b600081519050919050565b600082825260208201905092915050565b60005b8381101561055b578082015181840152602081019050610540565b60008484015250505050565b600061057282610521565b61057c818561052c565b935061058c81856020860161053d565b61059581610326565b840191505092915050565b6105a981610462565b82525050565b60008115159050919050565b6105c4816105af565b82525050565b600060608201905081810360008301526105e48186610567565b90506105f360208301856105a0565b61060060408301846105bb565b949350505050565b610611816105af565b811461061c57600080fd5b50565b60008135905061062e81610608565b92915050565b6000806040838503121561064b5761064a610312565b5b600061065985828601610483565b925050602061066a8582860161061f565b9150509250929050565b7f4e487b7100000000000000000000000000000000000000000000000000000000600052602260045260246000fd5b600060028204905060018216806106bb57607f821691505b6020821081036106ce576106cd610674565b5b50919050565b60008190508160005260206000209050919050565b60006020601f8301049050919050565b600082821b905092915050565b6000600883026107367fffffffffffffffffffffffffffffffffffffffffffffffffffffffffffffffff826106f9565b61074086836106f9565b95508019841693508086168417925050509392505050565b6000819050919050565b600061077d61077861077384610462565b610758565b610462565b9050919050565b6000819050919050565b61079783610762565b6107ab6107a382610784565b848454610706565b825550505050565b600090565b6107c06107b3565b6107cb81848461078e565b505050565b5b818110156107ef576107e46000826107b8565b6001810190506107d1565b5050565b601f82111561083457610805816106d4565b61080e846106e9565b8101602085101561081d578190505b610831610829856106e9565b8301826107d0565b50505b505050565b600082821c905092915050565b600061085760001984600802610839565b1980831691505092915050565b60006108708383610846565b9150826002028217905092915050565b61088982610521565b67ffffffffffffffff8111156108a2576108a1610337565b5b6108ac82546106a3565b6108b78282856107f3565b600060209050601f8311600181146108ea57600084156108d8578287015190505b6108e28582610864565b86555061094a565b601f1984166108f8866106d4565b60005b82811015610920578489015182556001820191506020850194506020810190506108fb565b8683101561093d5784890151610939601f891682610846565b8355505b6001600288020188555050505b505050505050565b6000604082019050818103600083015261096c8185610567565b905061097b60208301846105a0565b9392505050565b7f53747564656e7420646f6573206e6f7420657869737400000000000000000000600082015250565b60006109b860168361052c565b91506109c382610982565b602082019050919050565b600060208201905081810360008301526109e7816109ab565b9050919050565b7f4e487b7100000000000000000000000000000000000000000000000000000000600052603260045260246000fd5b6000604082019050610a3260008301856105a0565b610a3f60208301846105bb565b939250505056fea26469706673582212202adad9b5c3ee96b892d5ac1069515ba60690c2a652b95cb35022af14cf523b3964736f6c634300081c0033",
  "linkReferences": {},
  "deployedLinkReferences": {}
}