{
  "contracts/Attendance.sol": {
    "Attendance": {
      "abi": [
        {
          "anonymous": false,
          "inputs": [
            {
              "indexed": false,
              "internalType": "uint256",
              "name": "index",
              "type": "uint256"
            },
            {
              "indexed": false,
              "internalType": "bool",
              "name": "present",
              "type": "bool"
            }
          ],
          "name": "AttendanceUpdated",
          "type": "event"
        },
        {
          "anonymous": false,
          "inputs": [
            {
              "indexed": false,
              "internalType": "string",
              "name": "name",
              "type": "string"
            },
            {
              "indexed": false,
              "internalType": "uint256",
              "name": "age",
              "type": "uint256"
            }
          ],
          "name": "StudentAdded",
          "type": "event"
        },
        {
          "inputs": [
            {
              "internalType": "string",
              "name": "_name",
              "type": "string"
            },
            {
              "internalType": "uint256",
              "name": "_age",
              "type": "uint256"
            }
          ],
          "name": "addStudent",
          "outputs": [],
          "stateMutability": "nonpayable",
          "type": "function"
        },
        {
          "inputs": [
            {
              "internalType": "uint256",
              "name": "",
              "type": "uint256"
            }
          ],
          "name": "allStudent",
          "outputs": [
            {
              "internalType": "string",
              "name": "name",
              "type": "string"
            },
            {
              "internalType": "uint256",
              "name": "age",
              "type": "uint256"
            },
            {
              "internalType": "bool",
              "name": "present",
              "type": "bool"
            }
          ],
          "stateMutability": "view",
          "type": "function"
        },
        {
          "inputs": [
            {
              "internalType": "uint256",
              "name": "_index",
              "type": "uint256"
            },
            {
              "internalType": "bool",
              "name": "_present",
              "type": "bool"
            }
          ],
          "name": "updateAttendance",
          "outputs": [],
          "stateMutability": "nonpayable",
          "type": "function"
        }
      ],
      "evm": {
        "bytecode": {
          "linkReferences": {},
          "object": "6080604052348015600f57600080fd5b50610a7c8061001f6000396000f3fe608060405234801561001057600080fd5b50600436106100415760003560e01c80630e5eeef714610046578063b3c5df5814610062578063d6f4d53a14610094575b600080fd5b610060600480360381019061005b9190610498565b6100b0565b005b61007c600480360381019061007791906104f4565b610178565b60405161008b939291906105ca565b60405180910390f35b6100ae60048036038101906100a99190610634565b610247565b005b60006040518060600160405280848152602001838152602001600015158152509080600181540180825580915050600190039060005260206000209060030201600090919091909150600082015181600001908161010e9190610880565b506020820151816001015560408201518160020160006101000a81548160ff02191690831515021790555050507f61cbfeb3e2fc793ef2e1793a66f9197e4991c82480733630d27c152d9de55d29828260405161016c929190610952565b60405180910390a15050565b6000818154811061018857600080fd5b90600052602060002090600302016000915090508060000180546101ab906106a3565b80601f01602080910402602001604051908101604052809291908181526020018280546101d7906106a3565b80156102245780601f106101f957610100808354040283529160200191610224565b820191906000526020600020905b81548152906001019060200180831161020757829003601f168201915b5050505050908060010154908060020160009054906101000a900460ff16905083565b600080549050821061028e576040517f08c379a0000000000000000000000000000000000000000000000000000000008152600401610285906109ce565b60405180910390fd5b80600083815481106102a3576102a26109ee565b5b906000526020600020906003020160020160006101000a81548160ff0219169083151502179055507fb24c5a7d71fb23dd51bc8d1fcbf951fa449ec941f1775a487bc9139bd573099d82826040516102fc929190610a1d565b60405180910390a15050565b6000604051905090565b600080fd5b600080fd5b600080fd5b600080fd5b6000601f19601f8301169050919050565b7f4e487b7100000000000000000000000000000000000000000000000000000000600052604160045260246000fd5b61036f82610326565b810181811067ffffffffffffffff8211171561038e5761038d610337565b5b80604052505050565b60006103a1610308565b90506103ad8282610366565b919050565b600067ffffffffffffffff8211156103cd576103cc610337565b5b6103d682610326565b9050602081019050919050565b82818337600083830152505050565b6000610405610400846103b2565b610397565b90508281526020810184848401111561042157610420610321565b5b61042c8482856103e3565b509392505050565b600082601f8301126104495761044861031c565b5b81356104598482602086016103f2565b91505092915050565b6000819050919050565b61047581610462565b811461048057600080fd5b50565b6000813590506104928161046c565b92915050565b600080604083850312156104af576104ae610312565b5b600083013567ffffffffffffffff8111156104cd576104cc610317565b5b6104d985828601610434565b92505060206104ea85828601610483565b9150509250929050565b60006020828403121561050a57610509610312565b5b600061051884828501610483565b91505092915050565b600081519050919050565b600082825260208201905092915050565b60005b8381101561055b578082015181840152602081019050610540565b60008484015250505050565b600061057282610521565b61057c818561052c565b935061058c81856020860161053d565b61059581610326565b840191505092915050565b6105a981610462565b82525050565b60008115159050919050565b6105c4816105af565b82525050565b600060608201905081810360008301526105e48186610567565b90506105f360208301856105a0565b61060060408301846105bb565b949350505050565b610611816105af565b811461061c57600080fd5b50565b60008135905061062e81610608565b92915050565b6000806040838503121561064b5761064a610312565b5b600061065985828601610483565b925050602061066a8582860161061f565b9150509250929050565b7f4e487b7100000000000000000000000000000000000000000000000000000000600052602260045260246000fd5b600060028204905060018216806106bb57607f821691505b6020821081036106ce576106cd610674565b5b50919050565b60008190508160005260206000209050919050565b60006020601f8301049050919050565b600082821b905092915050565b6000600883026107367fffffffffffffffffffffffffffffffffffffffffffffffffffffffffffffffff826106f9565b61074086836106f9565b95508019841693508086168417925050509392505050565b6000819050919050565b600061077d61077861077384610462565b610758565b610462565b9050919050565b6000819050919050565b61079783610762565b6107ab6107a382610784565b848454610706565b825550505050565b600090565b6107c06107b3565b6107cb81848461078e565b505050565b5b818110156107ef576107e46000826107b8565b6001810190506107d1565b5050565b601f82111561083457610805816106d4565b61080e846106e9565b8101602085101561081d578190505b610831610829856106e9565b8301826107d0565b50505b505050565b600082821c905092915050565b600061085760001984600802610839565b1980831691505092915050565b60006108708383610846565b9150826002028217905092915050565b61088982610521565b67ffffffffffffffff8111156108a2576108a1610337565b5b6108ac82546106a3565b6108b78282856107f3565b600060209050601f8311600181146108ea57600084156108d8578287015190505b6108e28582610864565b86555061094a565b601f1984166108f8866106d4565b60005b82811015610920578489015182556001820191506020850194506020810190506108fb565b8683101561093d5784890151610939601f891682610846565b8355505b6001600288020188555050505b505050505050565b6000604082019050818103600083015261096c8185610567565b905061097b60208301846105a0565b9392505050565b7f53747564656e7420646f6573206e6f7420657869737400000000000000000000600082015250565b60006109b860168361052c565b91506109c382610982565b602082019050919050565b600060208201905081810360008301526109e7816109ab565b9050919050565b7f4e487b7100000000000000000000000000000000000000000000000000000000600052603260045260246000fd5b6000604082019050610a3260008301856105a0565b610a3f60208301846105bb565b939250505056fea26469706673582212202adad9b5c3ee96b892d5ac1069515ba60690c2a652b95cb35022af14cf523b3964736f6c634300081c0033",
          "opcodes": "PUSH1 0x80 PUSH1 0x40 MSTORE CALLVALUE DUP1 ISZERO PUSH1 0xF JUMPI PUSH1 0x0 DUP1 REVERT JUMPDEST POP PUSH2 0xA7C DUP1 PUSH2 0x1F PUSH1 0x0 CODECOPY PUSH1 0x0 RETURN INVALID PUSH1 0x80 PUSH1 0x40 MSTORE CALLVALUE DUP1 ISZERO PUSH2 0x10 JUMPI PUSH1 0x0 DUP1 REVERT JUMPDEST POP PUSH1 0x4 CALLDATASIZE LT PUSH2 0x41 JUMPI PUSH1 0x0 CALLDATALOAD PUSH1 0xE0 SHR DUP1 PUSH4 0xE5EEEF7 EQ PUSH2 0x46 JUMPI DUP1 PUSH4 0xB3C5DF58 EQ PUSH2 0x62 JUMPI DUP1 PUSH4 0xD6F4D53A EQ PUSH2 0x94 JUMPI JUMPDEST PUSH1 0x0 DUP1 REVERT JUMPDEST PUSH2 0x60 PUSH1 0x4 DUP1 CALLDATASIZE SUB DUP2 ADD SWAP1 PUSH2 0x5B SWAP2 SWAP1 PUSH2 0x498 JUMP JUMPDEST PUSH2 0xB0 JUMP JUMPDEST STOP JUMPDEST PUSH2 0x7C PUSH1 0x4 DUP1 CALLDATASIZE SUB DUP2 ADD SWAP1 PUSH2 0x77 SWAP2 SWAP1 PUSH2 0x4F4 JUMP JUMPDEST PUSH2 0x178 JUMP JUMPDEST PUSH1 0x40 MLOAD PUSH2 0x8B SWAP4 SWAP3 SWAP2 SWAP1 PUSH2 0x5CA JUMP JUMPDEST PUSH1 0x40 MLOAD DUP1 SWAP2 SUB SWAP1 RETURN JUMPDEST PUSH2 0xAE PUSH1 0x4 DUP1 CALLDATASIZE SUB DUP2 ADD SWAP1 PUSH2 0xA9 SWAP2 SWAP1 PUSH2 0x634 JUMP JUMPDEST PUSH2 0x247 JUMP JUMPDEST STOP JUMPDEST PUSH1 0x0 PUSH1 0x40 MLOAD DUP1 PUSH1 0x60 ADD PUSH1 0x40 MSTORE DUP1 DUP5 DUP2 MSTORE PUSH1 0x20 ADD DUP4 DUP2 MSTORE PUSH1 0x20 ADD PUSH1 0x0 ISZERO ISZERO DUP2 MSTORE POP SWAP1 DUP1 PUSH1 0x1 DUP2 SLOAD ADD DUP1 DUP3 SSTORE DUP1 SWAP2 POP POP PUSH1 0x1 SWAP1 SUB SWAP1 PUSH1 0x0 MSTORE PUSH1 0x20 PUSH1 0x0 KECCAK256 SWAP1 PUSH1 0x3 MUL ADD PUSH1 0x0 SWAP1 SWAP2 SWAP1 SWAP2 SWAP1 SWAP2 POP PUSH1 0x0 DUP3 ADD MLOAD DUP2 PUSH1 0x0 ADD SWAP1 DUP2 PUSH2 0x10E SWAP2 SWAP1 PUSH2 0x880 JUMP JUMPDEST POP PUSH1 0x20 DUP3 ADD MLOAD DUP2 PUSH1 0x1 ADD SSTORE PUSH1 0x40 DUP3 ADD MLOAD DUP2 PUSH1 0x2 ADD PUSH1 0x0 PUSH2 0x100 EXP DUP2 SLOAD DUP2 PUSH1 0xFF MUL NOT AND SWAP1 DUP4 ISZERO ISZERO MUL OR SWAP1 SSTORE POP POP POP PUSH32 0x61CBFEB3E2FC793EF2E1793A66F9197E4991C82480733630D27C152D9DE55D29 DUP3 DUP3 PUSH1 0x40 MLOAD PUSH2 0x16C SWAP3 SWAP2 SWAP1 PUSH2 0x952 JUMP JUMPDEST PUSH1 0x40 MLOAD DUP1 SWAP2 SUB SWAP1 LOG1 POP POP JUMP JUMPDEST PUSH1 0x0 DUP2 DUP2 SLOAD DUP2 LT PUSH2 0x188 JUMPI PUSH1 0x0 DUP1 REVERT JUMPDEST SWAP1 PUSH1 0x0 MSTORE PUSH1 0x20 PUSH1 0x0 KECCAK256 SWAP1 PUSH1 0x3 MUL ADD PUSH1 0x0 SWAP2 POP SWAP1 POP DUP1 PUSH1 0x0 ADD DUP1 SLOAD PUSH2 0x1AB SWAP1 PUSH2 0x6A3 JUMP JUMPDEST DUP1 PUSH1 0x1F ADD PUSH1 0x20 DUP1 SWAP2 DIV MUL PUSH1 0x20 ADD PUSH1 0x40 MLOAD SWAP1 DUP2 ADD PUSH1 0x40 MSTORE DUP1 SWAP3 SWAP2 SWAP1 DUP2 DUP2 MSTORE PUSH1 0x20 ADD DUP3 DUP1 SLOAD PUSH2 0x1D7 SWAP1 PUSH2 0x6A3 JUMP JUMPDEST DUP1 ISZERO PUSH2 0x224 JUMPI DUP1 PUSH1 0x1F LT PUSH2 0x1F9 JUMPI PUSH2 0x100 DUP1 DUP4 SLOAD DIV MUL DUP4 MSTORE SWAP2 PUSH1 0x20 ADD SWAP2 PUSH2 0x224 JUMP JUMPDEST DUP3 ADD SWAP2 SWAP1 PUSH1 0x0 MSTORE PUSH1 0x20 PUSH1 0x0 KECCAK256 SWAP1 JUMPDEST DUP2 SLOAD DUP2 MSTORE SWAP1 PUSH1 0x1 ADD SWAP1 PUSH1 0x20 ADD DUP1 DUP4 GT PUSH2 0x207 JUMPI DUP3 SWAP1 SUB PUSH1 0x1F AND DUP3 ADD SWAP2 JUMPDEST POP POP POP POP POP SWAP1 DUP1 PUSH1 0x1 ADD SLOAD SWAP1 DUP1 PUSH1 0x2 ADD PUSH1 0x0 SWAP1 SLOAD SWAP1 PUSH2 0x100 EXP SWAP1 DIV PUSH1 0xFF AND SWAP1 POP DUP4 JUMP JUMPDEST PUSH1 0x0 DUP1 SLOAD SWAP1 POP DUP3 LT PUSH2 0x28E JUMPI PUSH1 0x40 MLOAD PUSH32 0x8C379A000000000000000000000000000000000000000000000000000000000 DUP2 MSTORE PUSH1 0x4 ADD PUSH2 0x285 SWAP1 PUSH2 0x9CE JUMP JUMPDEST PUSH1 0x40 MLOAD DUP1 SWAP2 SUB SWAP1 REVERT JUMPDEST DUP1 PUSH1 0x0 DUP4 DUP2 SLOAD DUP2 LT PUSH2 0x2A3 JUMPI PUSH2 0x2A2 PUSH2 0x9EE JUMP JUMPDEST JUMPDEST SWAP1 PUSH1 0x0 MSTORE PUSH1 0x20 PUSH1 0x0 KECCAK256 SWAP1 PUSH1 0x3 MUL ADD PUSH1 0x2 ADD PUSH1 0x0 PUSH2 0x100 EXP DUP2 SLOAD DUP2 PUSH1 0xFF MUL NOT AND SWAP1 DUP4 ISZERO ISZERO MUL OR SWAP1 SSTORE POP PUSH32 0xB24C5A7D71FB23DD51BC8D1FCBF951FA449EC941F1775A487BC9139BD573099D DUP3 DUP3 PUSH1 0x40 MLOAD PUSH2 0x2FC SWAP3 SWAP2 SWAP1 PUSH2 0xA1D JUMP JUMPDEST PUSH1 0x40 MLOAD DUP1 SWAP2 SUB SWAP1 LOG1 POP POP JUMP JUMPDEST PUSH1 0x0 PUSH1 0x40 MLOAD SWAP1 POP SWAP1 JUMP JUMPDEST PUSH1 0x0 DUP1 REVERT JUMPDEST PUSH1 0x0 DUP1 REVERT JUMPDEST PUSH1 0x0 DUP1 REVERT JUMPDEST PUSH1 0x0 DUP1 REVERT JUMPDEST PUSH1 0x0 PUSH1 0x1F NOT PUSH1 0x1F DUP4 ADD AND SWAP1 POP SWAP2 SWAP1 POP JUMP JUMPDEST PUSH32 0x4E487B7100000000000000000000000000000000000000000000000000000000 PUSH1 0x0 MSTORE PUSH1 0x41 PUSH1 0x4 MSTORE PUSH1 0x24 PUSH1 0x0 REVERT JUMPDEST PUSH2 0x36F DUP3 PUSH2 0x326 JUMP JUMPDEST DUP2 ADD DUP2 DUP2 LT PUSH8 0xFFFFFFFFFFFFFFFF DUP3 GT OR ISZERO PUSH2 0x38E JUMPI PUSH2 0x38D PUSH2 0x337 JUMP JUMPDEST JUMPDEST DUP1 PUSH1 0x40 MSTORE POP POP POP JUMP JUMPDEST PUSH1 0x0 PUSH2 0x3A1 PUSH2 0x308 JUMP JUMPDEST SWAP1 POP PUSH2 0x3AD DUP3 DUP3 PUSH2 0x366 JUMP JUMPDEST SWAP2 SWAP1 POP JUMP JUMPDEST PUSH1 0x0 PUSH8 0xFFFFFFFFFFFFFFFF DUP3 GT ISZERO PUSH2 0x3CD JUMPI PUSH2 0x3CC PUSH2 0x337 JUMP JUMPDEST JUMPDEST PUSH2 0x3D6 DUP3 PUSH2 0x326 JUMP JUMPDEST SWAP1 POP PUSH1 0x20 DUP2 ADD SWAP1 POP SWAP2 SWAP1 POP JUMP JUMPDEST DUP3 DUP2 DUP4 CALLDATACOPY PUSH1 0x0 DUP4 DUP4 ADD MSTORE POP POP POP JUMP JUMPDEST PUSH1 0x0 PUSH2 0x405 PUSH2 0x400 DUP5 PUSH2 0x3B2 JUMP JUMPDEST PUSH2 0x397 JUMP JUMPDEST SWAP1 POP DUP3 DUP2 MSTORE PUSH1 0x20 DUP2 ADD DUP5 DUP5 DUP5 ADD GT ISZERO PUSH2 0x421 JUMPI PUSH2 0x420 PUSH2 0x321 JUMP JUMPDEST JUMPDEST PUSH2 0x42C DUP5 DUP3 DUP6 PUSH2 0x3E3 JUMP JUMPDEST POP SWAP4 SWAP3 POP POP POP JUMP JUMPDEST PUSH1 0x0 DUP3 PUSH1 0x1F DUP4 ADD SLT PUSH2 0x449 JUMPI PUSH2 0x448 PUSH2 0x31C JUMP JUMPDEST JUMPDEST DUP2 CALLDATALOAD PUSH2 0x459 DUP5 DUP3 PUSH1 0x20 DUP7 ADD PUSH2 0x3F2 JUMP JUMPDEST SWAP2 POP POP SWAP3 SWAP2 POP POP JUMP JUMPDEST PUSH1 0x0 DUP2 SWAP1 POP SWAP2 SWAP1 POP JUMP JUMPDEST PUSH2 0x475 DUP2 PUSH2 0x462 JUMP JUMPDEST DUP2 EQ PUSH2 0x480 JUMPI PUSH1 0x0 DUP1 REVERT JUMPDEST POP JUMP JUMPDEST PUSH1 0x0 DUP2 CALLDATALOAD SWAP1 POP PUSH2 0x492 DUP2 PUSH2 0x46C JUMP JUMPDEST SWAP3 SWAP2 POP POP JUMP JUMPDEST PUSH1 0x0 DUP1 PUSH1 0x40 DUP4 DUP6 SUB SLT ISZERO PUSH2 0x4AF JUMPI PUSH2 0x4AE PUSH2 0x312 JUMP JUMPDEST JUMPDEST PUSH1 0x0 DUP4 ADD CALLDATALOAD PUSH8 0xFFFFFFFFFFFFFFFF DUP2 GT ISZERO PUSH2 0x4CD JUMPI PUSH2 0x4CC PUSH2 0x317 JUMP JUMPDEST JUMPDEST PUSH2 0x4D9 DUP6 DUP3 DUP7 ADD PUSH2 0x434 JUMP JUMPDEST SWAP3 POP POP PUSH1 0x20 PUSH2 0x4EA DUP6 DUP3 DUP7 ADD PUSH2 0x483 JUMP JUMPDEST SWAP2 POP POP SWAP3 POP SWAP3 SWAP1 POP JUMP JUMPDEST PUSH1 0x0 PUSH1 0x20 DUP3 DUP5 SUB SLT ISZERO PUSH2 0x50A JUMPI PUSH2 0x509 PUSH2 0x312 JUMP JUMPDEST JUMPDEST PUSH1 0x0 PUSH2 0x518 DUP5 DUP3 DUP6 ADD PUSH2 0x483 JUMP JUMPDEST SWAP2 POP POP SWAP3 SWAP2 POP POP JUMP JUMPDEST PUSH1 0x0 DUP2 MLOAD SWAP1 POP SWAP2 SWAP1 POP JUMP JUMPDEST PUSH1 0x0 DUP3 DUP3 MSTORE PUSH1 0x20 DUP3 ADD SWAP1 POP SWAP3 SWAP2 POP POP JUMP JUMPDEST PUSH1 0x0 JUMPDEST DUP4 DUP2 LT ISZERO PUSH2 0x55B JUMPI DUP1 DUP3 ADD MLOAD DUP2 DUP5 ADD MSTORE PUSH1 0x20 DUP2 ADD SWAP1 POP PUSH2 0x540 JUMP JUMPDEST PUSH1 0x0 DUP5 DUP5 ADD MSTORE POP POP POP POP JUMP JUMPDEST PUSH1 0x0 PUSH2 0x572 DUP3 PUSH2 0x521 JUMP JUMPDEST PUSH2 0x57C DUP2 DUP6 PUSH2 0x52C JUMP JUMPDEST SWAP4 POP PUSH2 0x58C DUP2 DUP6 PUSH1 0x20 DUP7 ADD PUSH2 0x53D JUMP JUMPDEST PUSH2 0x595 DUP2 PUSH2 0x326 JUMP JUMPDEST DUP5 ADD SWAP2 POP POP SWAP3 SWAP2 POP POP JUMP JUMPDEST PUSH2 0x5A9 DUP2 PUSH2 0x462 JUMP JUMPDEST DUP3 MSTORE POP POP JUMP JUMPDEST PUSH1 0x0 DUP2 ISZERO ISZERO SWAP1 POP SWAP2 SWAP1 POP JUMP JUMPDEST PUSH2 0x5C4 DUP2 PUSH2 0x5AF JUMP JUMPDEST DUP3 MSTORE POP POP JUMP JUMPDEST PUSH1 0x0 PUSH1 0x60 DUP3 ADD SWAP1 POP DUP2 DUP2 SUB PUSH1 0x0 DUP4 ADD MSTORE PUSH2 0x5E4 DUP2 DUP7 PUSH2 0x567 JUMP JUMPDEST SWAP1 POP PUSH2 0x5F3 PUSH1 0x20 DUP4 ADD DUP6 PUSH2 0x5A0 JUMP JUMPDEST PUSH2 0x600 PUSH1 0x40 DUP4 ADD DUP5 PUSH2 0x5BB JUMP JUMPDEST SWAP5 SWAP4 POP POP POP POP JUMP JUMPDEST PUSH2 0x611 DUP2 PUSH2 0x5AF JUMP JUMPDEST DUP2 EQ PUSH2 0x61C JUMPI PUSH1 0x0 DUP1 REVERT JUMPDEST POP JUMP JUMPDEST PUSH1 0x0 DUP2 CALLDATALOAD SWAP1 POP PUSH2 0x62E DUP2 PUSH2 0x608 JUMP JUMPDEST SWAP3 SWAP2 POP POP JUMP JUMPDEST PUSH1 0x0 DUP1 PUSH1 0x40 DUP4 DUP6 SUB SLT ISZERO PUSH2 0x64B JUMPI PUSH2 0x64A PUSH2 0x312 JUMP JUMPDEST JUMPDEST PUSH1 0x0 PUSH2 0x659 DUP6 DUP3 DUP7 ADD PUSH2 0x483 JUMP JUMPDEST SWAP3 POP POP PUSH1 0x20 PUSH2 0x66A DUP6 DUP3 DUP7 ADD PUSH2 0x61F JUMP JUMPDEST SWAP2 POP POP SWAP3 POP SWAP3 SWAP1 POP JUMP JUMPDEST PUSH32 0x4E487B7100000000000000000000000000000000000000000000000000000000 PUSH1 0x0 MSTORE PUSH1 0x22 PUSH1 0x4 MSTORE PUSH1 0x24 PUSH1 0x0 REVERT JUMPDEST PUSH1 0x0 PUSH1 0x2 DUP3 DIV SWAP1 POP PUSH1 0x1 DUP3 AND DUP1 PUSH2 0x6BB JUMPI PUSH1 0x7F DUP3 AND SWAP2 POP JUMPDEST PUSH1 0x20 DUP3 LT DUP2 SUB PUSH2 0x6CE JUMPI PUSH2 0x6CD PUSH2 0x674 JUMP JUMPDEST JUMPDEST POP SWAP2 SWAP1 POP JUMP JUMPDEST PUSH1 0x0 DUP2 SWAP1 POP DUP2 PUSH1 0x0 MSTORE PUSH1 0x20 PUSH1 0x0 KECCAK256 SWAP1 POP SWAP2 SWAP1 POP JUMP JUMPDEST PUSH1 0x0 PUSH1 0x20 PUSH1 0x1F DUP4 ADD DIV SWAP1 POP SWAP2 SWAP1 POP JUMP JUMPDEST PUSH1 0x0 DUP3 DUP3 SHL SWAP1 POP SWAP3 SWAP2 POP POP JUMP JUMPDEST PUSH1 0x0 PUSH1 0x8 DUP4 MUL PUSH2 0x736 PUSH32 0xFFFFFFFFFFFFFFFFFFFFFFFFFFFFFFFFFFFFFFFFFFFFFFFFFFFFFFFFFFFFFFFF DUP3 PUSH2 0x6F9 JUMP JUMPDEST PUSH2 0x740 DUP7 DUP4 PUSH2 0x6F9 JUMP JUMPDEST SWAP6 POP DUP1 NOT DUP5 AND SWAP4 POP DUP1 DUP7 AND DUP5 OR SWAP3 POP POP POP SWAP4 SWAP3 POP POP POP JUMP JUMPDEST PUSH1 0x0 DUP2 SWAP1 POP SWAP2 SWAP1 POP JUMP JUMPDEST PUSH1 0x0 PUSH2 0x77D PUSH2 0x778 PUSH2 0x773 DUP5 PUSH2 0x462 JUMP JUMPDEST PUSH2 0x758 JUMP JUMPDEST PUSH2 0x462 JUMP JUMPDEST SWAP1 POP SWAP2 SWAP1 POP JUMP JUMPDEST PUSH1 0x0 DUP2 SWAP1 POP SWAP2 SWAP1 POP JUMP JUMPDEST PUSH2 0x797 DUP4 PUSH2 0x762 JUMP JUMPDEST PUSH2 0x7AB PUSH2 0x7A3 DUP3 PUSH2 0x784 JUMP JUMPDEST DUP5 DUP5 SLOAD PUSH2 0x706 JUMP JUMPDEST DUP3 SSTORE POP POP POP POP JUMP JUMPDEST PUSH1 0x0 SWAP1 JUMP JUMPDEST PUSH2 0x7C0 PUSH2 0x7B3 JUMP JUMPDEST PUSH2 0x7CB DUP2 DUP5 DUP5 PUSH2 0x78E JUMP JUMPDEST POP POP POP JUMP JUMPDEST JUMPDEST DUP2 DUP2 LT ISZERO PUSH2 0x7EF JUMPI PUSH2 0x7E4 PUSH1 0x0 DUP3 PUSH2 0x7B8 JUMP JUMPDEST PUSH1 0x1 DUP2 ADD SWAP1 POP PUSH2 0x7D1 JUMP JUMPDEST POP POP JUMP JUMPDEST PUSH1 0x1F DUP3 GT ISZERO PUSH2 0x834 JUMPI PUSH2 0x805 DUP2 PUSH2 0x6D4 JUMP JUMPDEST PUSH2 0x80E DUP5 PUSH2 0x6E9 JUMP JUMPDEST DUP2 ADD PUSH1 0x20 DUP6 LT ISZERO PUSH2 0x81D JUMPI DUP2 SWAP1 POP JUMPDEST PUSH2 0x831 PUSH2 0x829 DUP6 PUSH2 0x6E9 JUMP JUMPDEST DUP4 ADD DUP3 PUSH2 0x7D0 JUMP JUMPDEST POP POP JUMPDEST POP POP POP JUMP JUMPDEST PUSH1 0x0 DUP3 DUP3 SHR SWAP1 POP SWAP3 SWAP2 POP POP JUMP JUMPDEST PUSH1 0x0 PUSH2 0x857 PUSH1 0x0 NOT DUP5 PUSH1 0x8 MUL PUSH2 0x839 JUMP JUMPDEST NOT DUP1 DUP4 AND SWAP2 POP POP SWAP3 SWAP2 POP POP JUMP JUMPDEST PUSH1 0x0 PUSH2 0x870 DUP4 DUP4 PUSH2 0x846 JUMP JUMPDEST SWAP2 POP DUP3 PUSH1 0x2 MUL DUP3 OR SWAP1 POP SWAP3 SWAP2 POP POP JUMP JUMPDEST PUSH2 0x889 DUP3 PUSH2 0x521 JUMP JUMPDEST PUSH8 0xFFFFFFFFFFFFFFFF DUP2 GT ISZERO PUSH2 0x8A2 JUMPI PUSH2 0x8A1 PUSH2 0x337 JUMP JUMPDEST JUMPDEST PUSH2 0x8AC DUP3 SLOAD PUSH2 0x6A3 JUMP JUMPDEST PUSH2 0x8B7 DUP3 DUP3 DUP6 PUSH2 0x7F3 JUMP JUMPDEST PUSH1 0x0 PUSH1 0x20 SWAP1 POP PUSH1 0x1F DUP4 GT PUSH1 0x1 DUP2 EQ PUSH2 0x8EA JUMPI PUSH1 0x0 DUP5 ISZERO PUSH2 0x8D8 JUMPI DUP3 DUP8 ADD MLOAD SWAP1 POP JUMPDEST PUSH2 0x8E2 DUP6 DUP3 PUSH2 0x864 JUMP JUMPDEST DUP7 SSTORE POP PUSH2 0x94A JUMP JUMPDEST PUSH1 0x1F NOT DUP5 AND PUSH2 0x8F8 DUP7 PUSH2 0x6D4 JUMP JUMPDEST PUSH1 0x0 JUMPDEST DUP3 DUP2 LT ISZERO PUSH2 0x920 JUMPI DUP5 DUP10 ADD MLOAD DUP3 SSTORE PUSH1 0x1 DUP3 ADD SWAP2 POP PUSH1 0x20 DUP6 ADD SWAP5 POP PUSH1 0x20 DUP2 ADD SWAP1 POP PUSH2 0x8FB JUMP JUMPDEST DUP7 DUP4 LT ISZERO PUSH2 0x93D JUMPI DUP5 DUP10 ADD MLOAD PUSH2 0x939 PUSH1 0x1F DUP10 AND DUP3 PUSH2 0x846 JUMP JUMPDEST DUP4 SSTORE POP JUMPDEST PUSH1 0x1 PUSH1 0x2 DUP9 MUL ADD DUP9 SSTORE POP POP POP JUMPDEST POP POP POP POP POP POP JUMP JUMPDEST PUSH1 0x0 PUSH1 0x40 DUP3 ADD SWAP1 POP DUP2 DUP2 SUB PUSH1 0x0 DUP4 ADD MSTORE PUSH2 0x96C DUP2 DUP6 PUSH2 0x567 JUMP JUMPDEST SWAP1 POP PUSH2 0x97B PUSH1 0x20 DUP4 ADD DUP5 PUSH2 0x5A0 JUMP JUMPDEST SWAP4 SWAP3 POP POP POP JUMP JUMPDEST PUSH32 0x53747564656E7420646F6573206E6F7420657869737400000000000000000000 PUSH1 0x0 DUP3 ADD MSTORE POP JUMP JUMPDEST PUSH1 0x0 PUSH2 0x9B8 PUSH1 0x16 DUP4 PUSH2 0x52C JUMP JUMPDEST SWAP2 POP PUSH2 0x9C3 DUP3 PUSH2 0x982 JUMP JUMPDEST PUSH1 0x20 DUP3 ADD SWAP1 POP SWAP2 SWAP1 POP JUMP JUMPDEST PUSH1 0x0 PUSH1 0x20 DUP3 ADD SWAP1 POP DUP2 DUP2 SUB PUSH1 0x0 DUP4 ADD MSTORE PUSH2 0x9E7 DUP2 PUSH2 0x9AB JUMP JUMPDEST SWAP1 POP SWAP2 SWAP1 POP JUMP JUMPDEST PUSH32 0x4E487B7100000000000000000000000000000000000000000000000000000000 PUSH1 0x0 MSTORE PUSH1 0x32 PUSH1 0x4 MSTORE PUSH1 0x24 PUSH1 0x0 REVERT JUMPDEST PUSH1 0x0 PUSH1 0x40 DUP3 ADD SWAP1 POP PUSH2 0xA32 PUSH1 0x0 DUP4 ADD DUP6 PUSH2 0x5A0 JUMP JUMPDEST PUSH2 0xA3F PUSH1 0x20 DUP4 ADD DUP5 PUSH2 0x5BB JUMP JUMPDEST SWAP4 SWAP3 POP POP POP JUMP INVALID LOG2 PUSH5 0x6970667358 0x22 SLT KECCAK256 0x2A 0xDA 0xD9 0xB5 0xC3 0xEE SWAP7 0xB8 SWAP3 0xD5 0xAC LT PUSH10 0x515BA60690C2A652B95C 0xB3 POP 0x22 0xAF EQ 0xCF MSTORE EXTCODESIZE CODECOPY PUSH5 0x736F6C6343 STOP ADDMOD SHR STOP CALLER "
        },
        "methodIdentifiers": {
          "addStudent(string,uint256)": "0e5eeef7",
          "allStudent(uint256)": "b3c5df58",
          "updateAttendance(uint256,bool)": "d6f4d53a"
        }
      }
    }
  }
}